S00D00005454325F362E73726563A8
S11300000C9434000C944F040C9451000C94510043
S11300100C9451000C9451000C9451000C94510018
S11300200C9451000C94AC020C9451000C945100AB
S11300300C9451000C9451000C9464030C945100E2
S11300400C9451000C9451000C9453000C945100E6
S11300500C9451000C9429020C9451000C945100FE
S11300600C9451000C94510011241FBECFEFD8E022
S1130070DEBFCDBF11E0A0E0B1E0E2EAFDE002C0E6
S113008005900D92AA32B107D9F711E0AAE2B1E0C6
S113009001C01D92A43AB107E1F70E9463040C94D5
S11300A0CF060C9400001F920F920FB60F921124EA
S11300B02F933F934F935F936F937F938F939F936C
S11300C0EF93FF9320917801309179014091C6001C
S11300D050E0C901880F991FFC01E25EFE4F518375
S11300E0408388569E4F4F705070FC01518340836B
S11300F0243031050CF498C160911E0170911F01E8
S11301008091240190912501C09741E050E08A300C
S1130110910510F040E050E020912201309123013C
S11301202053304081E090E02A30310510F080E027
S113013090E0482359232091260130912701205330
S1130140304081E090E02A30310510F080E090E00A
S11301508423952341E06437710509F040E0209140
S11301602001309121012153304051E024303105E8
S113017008F050E0452350E084239523009709F4C8
S113018045C01092790110927801E0919A01F091A2
S11301909B01EE0FFF1FE259FE4F20919C0130910D
S11301A09D0184E690E0289FA001299F500D389F6F
S11301B0500D112480919E0190919F01880F991FE9
S11301C09C01220F331F220F331F820F931F480FEE
S11301D0591F6091A0017091A101460F571F5183CF
S11301E0408310921F0110921E011092210110925F
S11301F020011092230110922201109225011092E5
S11302002401109227011092260114C16936710548
S113021021F5EEE6F0E0808182608083E0E7F0E0A3
S113022080818160808328981092790110927801EE
S113023010921F0110921E011092210110922001B0
S11302401092230110922201109225011092240190
S11302501092270110922601EDC06536710519F53B
S1130260EEE6F0E080818D7F8083E0E7F0E080813E
S11302708E7F8083109279011092780110921F0171
S113028010921E011092210110922001109223015C
S1130290109222011092250110922401109227013C
S11302A010922601C7C06336710509F047C040911A
S11302B09C0150919D0124E630E0429FC001439F80
S11302C0900D529F900D112420919E0130919F0119
S11302D0220F331FA901440F551F440F551F240F2C
S11302E0351F820F931F4091A0015091A101840FEB
S11302F0951F880F109206018093070181E090E01A
S1130300909305018093040128981092790110922A
S1130310780110921F0110921E0110922101109277
S113032020011092230110922201109225011092B3
S1130330240110922701109226017CC061367105B8
S113034009F04CC040919C0150919D0124E630E09D
S1130350429FC001439F900D529F900D1124209104
S11303609E0130919F01220F331FA901440F551F95
S1130370440F551F240F351F820F931F4091A00176
S11303805091A101840F951F880F1092060180934C
S1130390070181E090E09093010180930001909324
S11303A00501809304011092790110927801219A39
S11303B0289810921F0110921E0110922101109290
S11303C02001109223011092220110922501109213
S11303D0240110922701109226012CC06436710565
S11303E051F41092010110920001109279011092BF
S11303F0780128981FC01092790110927801109208
S11304001F0110921E0110922101109220011092DE
S113041023011092220110922501109224011092BE
S113042027011092260106C02F5F3F4F30937901B8
S113043020937801FF91EF919F918F917F916F911C
S11304405F914F913F912F910F900FBE0F901F908E
S113045018951F920F920FB60F9211240F931F93AA
S11304602F933F934F935F936F937F938F939F93B8
S1130470AF93BF93CF93DF93EF93FF93A091780053
S1130480B0E0B0933101A093300120917900209322
S11304902E0110922F0100917A0110917B01F80135
S11304A0359644E851E0EE0FFF1FE40FF51F8091ED
S11304B018019091190191838083E8012A96CC0F49
S11304C0DD1FC40FD51F722F60E0A62BB72BBD0113
S11304D0882777FD8095982F0E94D80525E33EED67
S11304E04EEA52E40E94D90422EB3DE941E950E48A
S11304F00E943D050E94A505DC01CB0199838883F8
S11305000F5F1F4F10937B0100937A010430110594
S113051024F010927B0110927A01ECE7F0E08081E4
S1130520807E8083908180917A01892B8083FF91E2
S1130530EF91DF91CF91BF91AF919F918F917F9177
S11305406F915F914F913F912F911F910F910F9058
S11305500FBE0F901F9018951F920F920FB60F9217
S113056011248F939F93EF93FF9386E18093B200BE
S113057080917E0190917F018230910509F440C001
S1130580833091053CF4009789F08130910509F09E
S11305908BC01EC08430910509F44FC0843091058E
S11305A0CCF18530910509F07FC05FC0E0917A01FC
S11305B0F0917B01EE0FFF1FE257FE4F8081809385
S11305C0C60081E090E090937F0180937E0173C028
S11305D0E0917A01F0917B01EE0FFF1FE856FE4F88
S11305E08081918199230CF4019695958795809348
S11305F0C60082E090E090937F0180937E015BC00F
S11306008CE28093C60083E090E090937F01809316
S11306107E0151C0E0917A01F0917B01EE0FFF1F42
S1130620E257FE4F80818C5F8093C60084E090E0A7
S113063090937F0180937E013EC0E0917A01F09116
S11306407B01EE0FFF1FE059FE4F808191819923BA
S11306500CF40196959587958093C60085E090E00B
S113066090937F0180937E0126C08CE28093C60024
S113067010927F0110927E018091180190911901CE
S1130680019690931901809318018530910534F0F7
S113069081E090E09093190180931801EAE7F0E07B
S11306A080818064808307C08CE28093C6001092AE
S11306B07F0110927E01FF91EF919F918F910F9096
S11306C00FBE0F901F9018951F920F920FB60F92A6
S11306D011242F933F938F939F9380912A0190919C
S11306E02B01019690932B0180932A012091700194
S11306F0309171018091980190919901821793072B
S113070014F42C9A01C02C98209172013091730139
S113071080919A0190919B018217930714F42D9A6A
S113072001C02D98209174013091750180919C0134
S113073090919D018217930714F42E9A01C02E986C
S1130740209176013091770180919E0190919F01D3
S11307508217930714F42F9A01C02F9880912A01CD
S113076090912B01873191050CF490C08091000188
S1130770909101018130910509F06BC02A98809114
S11307800401909105018230910519F1833091059E
S1130790E1F18130910509F053C0209106013091B7
S11307A007018091080190910901821793073CF495
S11307B082E090E0909305018093040141C02817E2
S11307C03907F4F583E090E09093050180930401E8
S11307D037C0809108019091090101969093090115
S11307E08093080120910601309107018217930735
S11307F03CF18FEF9FEF90930501809304013093B8
S1130800090120930801289A1BC080910801909146
S11308100901019790930901809308012091060131
S113082030910701281739075CF08FEF9FEF909301
S11308300501809304013093090120930801289A4B
S11308408091020190910301909389008093880024
S113085019C00097B9F48091080190910901181604
S1130860190674F40197909309018093080180910B
S1130870020190910301909389008093880002C043
S1130880289A2A9A10922B0110922A019F918F91F3
S11308903F912F910F900FBE0F901F9018951F92AC
S11308A00F920FB60F9211248F939F9381E090E0E3
S11308B090933D0180933C019F918F910F900FBEC7
S11308C00F901F901895F894E1ECF0E0808188690E
S11308D08083E2ECF0E080818460808384E3809311
S11308E0C40084B5826084BD85B5826085BD8DE217
S11308F087BDE0E8F0E0808183648083E1E8F0E094
S113090080818A61808384E690E09093890080935B
S11309108800ECE7F0E08081806C8083EAE7F0E017
S1130920808188688083E1EBF0E080818760808348
S113093086E18093B200E9E6F0E080818260808302
S1130940E89A78948DEF84B982EC8AB92A9A5A9AF3
S1130950C8E0D1E00F2EF0E0CF2EF2E1DF2EFAE76F
S1130960EF2EF0E0FF2EF02D2B9A28813981220FF3
S1130970331F220F331F220F331F442737FD4095A7
S1130980542FC701B6010E94AD06CA01B9016150D6
S11309907040804090400E94D6050E9464060E94E8
S11309A0A505DC01CB019093030180930201DCCF08
S11309B05058BB27AA270ED04DC13ED130F043D1A9
S11309C020F031F49F3F11F41EF433C10EF4E0958E
S11309D0E7FB29C1E92F4FD180F3BA1762077307E8
S11309E08407950718F071F49EF567C10EF4E0953D
S11309F00B2EBA2FA02D0B01B90190010C01CA01D5
S1130A00A0011124FF27591B99F0593F50F4503E7F
S1130A1068F11A16F040A22F232F342F4427585F71
S1130A20F3CF469537952795A795F0405395C9F789
S1130A307EF41F16BA0B620B730B840BBAF0915041
S1130A40A1F0FF0FBB1F661F771F881FC2F70EC0E0
S1130A50BA0F621F731F841F48F4879577956795B3
S1130A60B795F7959E3F08F0B3CF9395880F08F09C
S1130A709927EE0F9795879508950CD0EBC0E3D096
S1130A8040F0DAD030F021F45F3F19F0CCC05111BE
S1130A9015C1CFC0F0D098F39923C9F35523B1F30E
S1130AA0951B550BBB27AA2762177307840738F0D9
S1130AB09F5F5F4F220F331F441FAA1FA9F333D038
S1130AC00E2E3AF0E0E830D091505040E695001CEC
S1130AD0CAF729D0FE2F27D0660F771F881FBB1FA8
S1130AE0261737074807AB07B0E809F0BB0B802D82
S1130AF0BF01FF2793585F4F2AF09E3F510568F0CE
S1130B0092C0DCC05F3FECF3983EDCF386957795AA
S1130B106795B795F7959F5FC9F7880F911D9695CF
S1130B20879597F90895E1E0660F771F881FBB1F2B
S1130B30621773078407BA0720F0621B730B840BD8
S1130B40BA0BEE1F88F7E095089504D06894B111AC
S1130B50B5C0089598D088F09F5790F0B92F992781
S1130B60B751A0F0D1F0660F771F881F991F1AF0B4
S1130B70BA95C9F712C0B13081F09FD0B1E00895A1
S1130B809CC0672F782F8827B85F39F0B93FCCF322
S1130B90869577956795B395D9F73EF490958095AA
S1130BA0709561957F4F8F4F9F4F0895E89409C0CA
S1130BB097FB3EF490958095709561957F4F8F4F8C
S1130BC09F4F9923A9F0F92F96E9BB279395F695A2
S1130BD0879577956795B795F111F8CFFAF4BB0F20
S1130BE011F460FF1BC06F5F7F4F8F4F9F4F16C084
S1130BF0882311F096E911C0772321F09EE8872F0E
S1130C00762F05C0662371F096E8862F70E060E0C9
S1130C102AF09A95660F771F881FDAF7880F969542
S1130C20879597F9089597F99F6780E870E060E0E9
S1130C3008959FEF80EC089500240A941616170671
S1130C4018060906089500240A94121613061406B9
S1130C5005060895092E0394000C11F4882352F01C
S1130C60BB0F40F4BF2B11F460FF04C06F5F7F4FD4
S1130C708F4F9F4F089557FD9058440F551F59F0BB
S1130C805F3F71F04795880F97FB991F61F09F3F75
S1130C9079F087950895121613061406551FF2CF9E
S1130CA04695F1DF08C0161617061806991FF1CFEE
S1130CB086957105610508940895E894BB27662715
S1130CC07727CB0197F90895DEDFE0F09E37D8F05F
S1130CD09639B8F49E3848F4672F782F8827985FA0
S1130CE0F9CF86957795679593959539D0F3B62F77
S1130CF0B1706B0F711D811D20F4879577956795F1
S1130D00939502C01CC0DACF882371F4772321F0B5
S1130D109850872B762F07C0662311F499270DC0AE
S1130D209051862B70E060E02AF09A95660F771F49
S1130D30881FDAF7880F9695879597F908959F3F4E
S1130D4031F0915020F4879577956795B795880F82
S1130D50911D9695879597F90895A1E21A2EAA1BDD
S1130D60BB1BFD010DC0AA1FBB1FEE1FFF1FA21757
S1130D70B307E407F50720F0A21BB30BE40BF50B54
S1130D80661F771F881F991F1A9469F760957095DD
S1130D90809590959B01AC01BD01CF010895F89415
S1050DA0FFCF7F
S1130DA2FFFF0F27FFFF6400640096009600010016
S1130DB2010001000100010004000A0905063000D7
S10D0DC23000300030003000300033
S9030000FC
